{
  "_format": "hh-sol-artifact-1",
  "contractName": "CropInsurance",
  "sourceName": "contracts/src/CropInsurance.sol",
  "abi": [
    {
      "inputs": [],
      "stateMutability": "nonpayable",
      "type": "constructor"
    },
    {
      "anonymous": false,
      "inputs": [
        {
          "indexed": true,
          "internalType": "uint256",
          "name": "id",
          "type": "uint256"
        },
        {
          "indexed": false,
          "internalType": "string",
          "name": "disasterType",
          "type": "string"
        }
      ],
      "name": "DisasterDeclared",
      "type": "event"
    },
    {
      "anonymous": false,
      "inputs": [
        {
          "indexed": true,
          "internalType": "uint256",
          "name": "id",
          "type": "uint256"
        },
        {
          "indexed": false,
          "internalType": "address",
          "name": "farmer",
          "type": "address"
        },
        {
          "indexed": false,
          "internalType": "uint256",
          "name": "amount",
          "type": "uint256"
        }
      ],
      "name": "PayoutSent",
      "type": "event"
    },
    {
      "anonymous": false,
      "inputs": [
        {
          "indexed": true,
          "internalType": "uint256",
          "name": "id",
          "type": "uint256"
        },
        {
          "indexed": false,
          "internalType": "address",
          "name": "farmer",
          "type": "address"
        },
        {
          "indexed": false,
          "internalType": "string",
          "name": "location",
          "type": "string"
        }
      ],
      "name": "PolicyCreated",
      "type": "event"
    },
    {
      "inputs": [],
      "name": "agent",
      "outputs": [
        {
          "internalType": "address",
          "name": "",
          "type": "address"
        }
      ],
      "stateMutability": "view",
      "type": "function"
    },
    {
      "inputs": [
        {
          "internalType": "string",
          "name": "location",
          "type": "string"
        }
      ],
      "name": "createPolicy",
      "outputs": [],
      "stateMutability": "payable",
      "type": "function"
    },
    {
      "inputs": [
        {
          "internalType": "uint256",
          "name": "policyId",
          "type": "uint256"
        },
        {
          "internalType": "string",
          "name": "disasterType",
          "type": "string"
        }
      ],
      "name": "declareDisaster",
      "outputs": [],
      "stateMutability": "nonpayable",
      "type": "function"
    },
    {
      "inputs": [
        {
          "internalType": "uint256",
          "name": "",
          "type": "uint256"
        }
      ],
      "name": "policies",
      "outputs": [
        {
          "internalType": "address",
          "name": "farmer",
          "type": "address"
        },
        {
          "internalType": "string",
          "name": "location",
          "type": "string"
        },
        {
          "internalType": "uint256",
          "name": "premium",
          "type": "uint256"
        },
        {
          "internalType": "uint256",
          "name": "payout",
          "type": "uint256"
        },
        {
          "internalType": "bool",
          "name": "active",
          "type": "bool"
        },
        {
          "internalType": "bool",
          "name": "claimed",
          "type": "bool"
        }
      ],
      "stateMutability": "view",
      "type": "function"
    },
    {
      "inputs": [],
      "name": "policyCount",
      "outputs": [
        {
          "internalType": "uint256",
          "name": "",
          "type": "uint256"
        }
      ],
      "stateMutability": "view",
      "type": "function"
    },
    {
      "stateMutability": "payable",
      "type": "receive"
    }
  ],
  "bytecode": "0x6080604052348015600e575f80fd5b50600180546001600160a01b031916331790556109448061002e5f395ff3fe60806040526004361061004c575f3560e01c806354f8421914610057578063d3e8948314610078578063de54d429146100b2578063ea84a549146100ce578063f5ff5c76146100e1575f80fd5b3661005357005b5f80fd5b348015610062575f80fd5b50610076610071366004610629565b610118565b005b348015610083575f80fd5b5061009761009236600461066d565b61034b565b6040516100a9969594939291906106b2565b60405180910390f35b3480156100bd575f80fd5b505f546040519081526020016100a9565b6100766100dc3660046106fc565b610428565b3480156100ec575f80fd5b50600154610100906001600160a01b031681565b6040516001600160a01b0390911681526020016100a9565b6001546001600160a01b031633146101645760405162461bcd60e51b815260206004820152600a60248201526913db9b1e481859d95b9d60b21b60448201526064015b60405180910390fd5b5f54821061019d5760405162461bcd60e51b815260206004820152600660248201526510985908125160d21b604482015260640161015b565b5f8083815481106101b0576101b0610736565b5f9182526020909120600590910201600481015490915060ff1680156101e057506004810154610100900460ff16155b61021c5760405162461bcd60e51b815260206004820152600d60248201526c4e6f7420636c61696d61626c6560981b604482015260640161015b565b60048101805461ffff1916610100179055805460038201546040515f926001600160a01b031691908381818185875af1925050503d805f811461027a576040519150601f19603f3d011682016040523d82523d5f602084013e61027f565b606091505b50509050806102c05760405162461bcd60e51b815260206004820152600d60248201526c14185e5bdd5d0819985a5b1959609a1b604482015260640161015b565b837f7d9e0e2e5557da052ca5a45af48b93bb8f90b405a2c3df1d3d24044800319272846040516102f0919061074a565b60405180910390a281546003830154604080516001600160a01b039093168352602083019190915285917fac496bf04b429bf7a6bb179271f3194066e9462a4f0d8afac065edd1f2be36b8910160405180910390a250505050565b5f8181548110610359575f80fd5b5f918252602090912060059091020180546001820180546001600160a01b0390921693509061038790610763565b80601f01602080910402602001604051908101604052809291908181526020018280546103b390610763565b80156103fe5780601f106103d5576101008083540402835291602001916103fe565b820191905f5260205f20905b8154815290600101906020018083116103e157829003601f168201915b50505050600283015460038401546004909401549293909290915060ff8082169161010090041686565b5f341161046b5760405162461bcd60e51b81526020600482015260116024820152704d7573742073656e64207072656d69756d60781b604482015260640161015b565b5f6040518060c00160405280336001600160a01b0316815260200183815260200134815260200134600361049f91906107af565b8152600160208083018290525f60409093018390528454808301865594835291829020835160059095020180546001600160a01b0319166001600160a01b0390951694909417845590820151919291908201906104fc9082610818565b50604082015160028201556060820151600382015560808201516004909101805460a09093015115156101000261ff00199215159290921661ffff19909316929092171790555f54610550906001906108d8565b7f21d0178f0cde2aed24022db30651dabafb4bbe431fb787fbc92113304d8e354933836040516105819291906108eb565b60405180910390a250565b634e487b7160e01b5f52604160045260245ffd5b5f82601f8301126105af575f80fd5b813567ffffffffffffffff808211156105ca576105ca61058c565b604051601f8301601f19908116603f011681019082821181831017156105f2576105f261058c565b8160405283815286602085880101111561060a575f80fd5b836020870160208301375f602085830101528094505050505092915050565b5f806040838503121561063a575f80fd5b82359150602083013567ffffffffffffffff811115610657575f80fd5b610663858286016105a0565b9150509250929050565b5f6020828403121561067d575f80fd5b5035919050565b5f81518084528060208401602086015e5f602082860101526020601f19601f83011685010191505092915050565b6001600160a01b038716815260c0602082018190525f906106d590830188610684565b60408301969096525060608101939093529015156080830152151560a09091015292915050565b5f6020828403121561070c575f80fd5b813567ffffffffffffffff811115610722575f80fd5b61072e848285016105a0565b949350505050565b634e487b7160e01b5f52603260045260245ffd5b602081525f61075c6020830184610684565b9392505050565b600181811c9082168061077757607f821691505b60208210810361079557634e487b7160e01b5f52602260045260245ffd5b50919050565b634e487b7160e01b5f52601160045260245ffd5b80820281158282048414176107c6576107c661079b565b92915050565b601f82111561081357805f5260205f20601f840160051c810160208510156107f15750805b601f840160051c820191505b81811015610810575f81556001016107fd565b50505b505050565b815167ffffffffffffffff8111156108325761083261058c565b610846816108408454610763565b846107cc565b602080601f831160018114610879575f84156108625750858301515b5f19600386901b1c1916600185901b1785556108d0565b5f85815260208120601f198616915b828110156108a757888601518255948401946001909101908401610888565b50858210156108c457878501515f19600388901b60f8161c191681555b505060018460011b0185555b505050505050565b818103818111156107c6576107c661079b565b6001600160a01b03831681526040602082018190525f9061072e9083018461068456fea2646970667358221220c8a6d4f255af8eab5241c177a9238f86af34dc495b1e90e62c453b650e611dc264736f6c63430008190033",
  "linkReferences": {},
  "deployedLinkReferences": {}
}